:020000020000FC
:0A020000407924301912027800182A
:100000000C9404000C948B000FEF04B907B95698B8
:1000100070E080E090E0A0E0B0E0C0E0FAE030E026
:10002000F0936900F3E0FDBBF0E0FAB9FCE0FBB946
:100030007894789468E05AE04BE00E9454004A9526
:10004000E1F75A95C9F76A95B1F7F9E07F1718F407
:1000500073950C94190070E08395F6E08F1710F4F7
:100060000C94190080E09395F9E09F1710F40C941C
:10007000190090E0A395F6E0AF1710F40C94190066
:10008000A0E0B395F9E0BF1710F40C941900B0E0AC
:10009000C395F9E0CF1710F40C9419000C940400E8
:1000A000ECE3EA95F1F7089525E0F2E0E0E0E70FF0
:1000B000149115B928B90E9450002A95F2E0E0E0A9
:1000C000E80F149115B928B90E9450002A95F2E062
:1000D000E0E0E90F149115B928B90E9450002A9563
:1000E000F2E0E0E0EA0F149115B928B90E9450003F
:1000F0002A95F2E0E0E0EB0F149115B928B90E94BF
:1001000050002A95F2E0E0E0EC0F149115B928B9FF
:100110000E9450000895F0E03F1719F0F1E03F17FA
:1001200031F031E00E94540078940C94910030E05A
:040130000C94190012
:00000001FF
